S00F00004E65773130687A2E73726563A8
S11300000C94CC000C9404010C94E9000C94E900C9
S11300100C94E9000C94E9000C94E9000C94E900B8
S11300200C94E9000C94E9000C94E9000C94E900A8
S11300300C94E9000C94E9000C94E9000C94E90098
S11300400C94E9000C94E9000C94E9000C94E90088
S11300500C94E9000C94E9000C94E9000C94E90078
S11300600C94E9000C94E900084AD73B3BCE016E9E
S113007084BCBFFDC12F3D6C74319ABD56833DDAFB
S11300803D00C77F11BED9E4BB4C3E916BAAAABE0A
S1130090000000803F006E616E00696E66000040E3
S11300A07A10F35A00A0724E18090010A5D4E80083
S11300B000E87648170000E40B54020000CA9A3B9B
S11300C0000000E1F5050000809698000000404221
S11300D00F000000A08601000000102700000000AF
S11300E0E803000000006400000000000A000000B3
S11300F000000100000000002C76D888DC674F085F
S113010023DFC1DFAE59E1B1B796E5E3E453C63A64
S1130110E651997696E8E6C28426EB898C9B62EDDB
S1130120407C6FFCEFBC9C9F40F2BAA56FA5F49095
S1130130055A2AF75C936B6CF9676DC11BFCE0E40C
S11301400D47FEF520E6B500D0ED902E0300943562
S113015077050080841E080000204E0A000000C8B5
S11301600C333333330F986E12831141EF8D211406
S1130170893BE65516CFFEE6DB18D1844B381BF7D6
S11301807C1D901DA4BBE424203284725E22810075
S1130190C9F124ECA1E53D2711241FBECFEFD8E01F
S11301A0DEBFCDBF11E0A0E0B1E0E6E5F4E202C0BD
S11301B005900D92A833B107D9F724E0A8E3B1E084
S11301C001C01D92AE32B207E1F70E9405020C9401
S11301D029120C9400009091C00095FFFCCF8093ED
S11301E0C60080E090E008958091C000882314F058
S11301F080E0089581E0089502C08091C600809156
S1130200C0008823D4F308951F920F920FB60F9263
S113021011248F9381E08093F6038F910F900FBE8A
S11302200F901F90189584E085B98CE284B984E11D
S11302308BB980E18AB981E58CBD81E005C0E0E23B
S1130240FEE43197F1F78F5F8436C8F3089595B1D2
S11302509B7F95B980688EBD0DB407FEFDCF1EBC93
S11302600DB407FEFDCF8EB595B1946095B9089590
S113027095B19B7F95B98EBD0DB407FEFDCF6EBDC4
S11302800DB407FEFDCF85B1846085B908959BB197
S11302909F7E9BB980688EBD0DB407FEFDCF1EBC4A
S11302A00DB407FEFDCF8EB59BB190619BB9089547
S11302B09BB19F7E9BB98EBD0DB407FEFDCF6EBD75
S11302C00DB407FEFDCF8BB180618BB9089562E553
S11302D080E10E94380160E081E10E94380164E01D
S11302E082E10E943801089560E780E20E9458018B
S11302F060E081E20E94580160E082E20E945801BD
S11303006CE083E20E94580160E484E20E94580198
S1130310089585B18B7F85B988EA8EBD0DB407FE3B
S1130320FDCF1EBC0DB407FEFDCF3EB51EBC0DB403
S113033007FEFDCF4EB51EBC0DB407FEFDCF7EB546
S11303401EBC0DB407FEFDCF2EB51EBC0DB407FEBA
S1130350FDCF6EB51EBC0DB407FEFDCF8EB595B1B5
S1130360946095B950E0542F4427432BEDEFF3E00C
S11303705183408330E0322F2227272B338322837B
S113038090E0982F8827862B9583848308958BB1DA
S11303908F7E8BB988EE8EBD0DB407FEFDCF1EBCDB
S11303A00DB407FEFDCF3EB51EBC0DB407FEFDCF58
S11303B04EB51EBC0DB407FEFDCF7EB51EBC0DB4FC
S11303C007FEFDCF2EB51EBC0DB407FEFDCF6EB5E6
S11303D01EBC0DB407FEFDCF8EB59BB190619BB9D9
S11303E050E0542F4427432BE7EFF3E0518340833D
S11303F030E0322F2227272B3383228390E0982F5B
S11304008827862B958384830895CF93DF93CDB774
S1130410DEB7C855D1090FB6F894DEBF0FBECDBF05
S113042084E08093E40310920F0410929303E8E2B3
S1130430F4E080E091E091838083938382839583C9
S1130440848388E08093C40088E18093C1000E9483
S1130450130110920F0483E0809369008DB38160CF
S11304608DBB789488EB98E6ADE1B3E480938F0379
S113047090939003A0939103B093920383E498E93B
S1130480A1E4B3EC8093180490931904A0931A0484
S1130490B0931B048DE39DE8A5EEB2EC8093E603D4
S11304A09093E703A093E803B093E903E8EBF3E048
S11304B087EC98EBA2E8BFE380839183A283B383A4
S11304C085EB96ECA0E2BCEB84839583A683B7838B
S11304D04CE554E066E47CEB408751876287738780
S11304E0E8ECF3E080839183A283B3838EE095E606
S11304F0A8E7BFE384839583A683B78383EF94E55A
S1130500A7E0BCEB80879187A287B387E2E8F3E09A
S1130510408351836283738384839583A683B783E3
S113052084E292E6AAE7BFE380879187A287B38734
S113053083EE90E2A5E5B5EC80931004909311044A
S1130540A0931204B093130487E391EFACECB4ECE2
S11305508093140490931504A0931604B093170485
S113056081E795EBA6E8B4EC80930304909304042C
S1130570A0930504B0930604E8E9F3E08AEE98E753
S1130580ACE8BFE380839183A283B38384EB98E5D3
S1130590AAE8BBE384839583A683B78344EB5BEC2F
S11305A067E37CEB4087518762877387EAEEF3E069
S11305B080839183A283B3838FEF94E9A0E9BFE39F
S11305C084839583A683B78385ED95E7A8E2BCEB86
S11305D080879187A287B387E4EDF3E0408351835A
S11305E06283738384839583A683B78382E19CE6C5
S11305F0ACE8BFE380879187A287B3870E94670135
S11306000E94740181E08093E50307C0E0E2FEE408
S11306103197F1F78F5F8093E5038091E50384368A
S1130620A8F387E20E94470183FFFBCF0E94C70122
S113063010929403109295031092960310929703CC
S11306401092B4031092B5031092B6031092B7033C
S113065010920B0410920C0410920D0410920E04CC
S1130660212C312C0E94F400882309F44EC04091BF
S113067028045091290463EF71E088E391E00E941B
S1130680ED10892B19F40E94FC00ECCF0E94FC00B1
S113069088E391E09F938F938EE091E09F938F93F3
S11306A00E94551168E770E088E391E00E94BD1054
S11306B00F900F900F900F90892B21F081E0809381
S11306C0930323C063E171E088E391E00E94D310B7
S11306D0892B21F081E08093E40317C066E171E087
S11306E088E391E00E94D310892B21F082E080936B
S11306F0E4030BC069E171E088E391E00E94D31048
S1130700892B19F084E08093E4038091F603882315
S113071009F44CC40E94C7018091E403823009F0BB
S113072058C080919303813009F053C080910F0425
S1130730803108F04AC0E7EFF3E085818F9384812C
S11307408F9383818F9382818F9381818F93808113
S11307508F938CE191E09F938F93CE0101969F93A9
S11307608F930E946B111092E5030FB6F894DEBFCD
S11307700FBECDBF0EC0E1E0F0E0EC0FFD1FE80FAF
S1130780F11D80810E94EB008091E5038F5F8093CF
S1130790E5038091E503282F30E0DE011196FD0189
S11307A001900020E9F73197EA1BFB0B2E173F0756
S11307B010F38DE00E94EB008AE00E94EB00809130
S11307C00F048F5F80930F0404C010920F041092E3
S11307D0930307EF13E0D8016D917C91072E000C71
S11307E0880B990B0E943A0A20911004309111044D
S11307F040911204509113040E94E2084B015C01E1
S1130800F80162817381072E000C880B990B0E94FA
S11308103A0A209114043091150440911604509121
S113082017040E94E2086B017C01D80114966D91B3
S11308307C911597072E000C880B990B0E943A0A9D
S1130840209103043091040440910504509106045E
S11308500E94E20825966CAF7DAF8EAF9FAF2597BF
S113086008E913E0F8012081318142815381C501F7
S1130870B4010E94190B2B013C01D80114962D914F
S11308803D914D915C911797C701B6010E94190BD8
S11308909B01AC01C301B2010E94E3082B013C019E
S11308A0F801208531854285538525966CAD7DAD53
S11308B08EAD9FAD25970E94190B9B01AC01C3011E
S11308C0B2010E94E30869966CAF7DAF8EAF9FAF13
S11308D06997609320047093210480932204909379
S11308E023040AEE13E0D8012D913D914D915C91C2
S11308F0C501B4010E94190B2B013C01F8012481AC
S1130900358146815781C701B6010E94190B9B01AD
S1130910AC01C301B2010E94E3082B013C01D801E0
S113092018962D913D914D915C911B9725966CAD38
S11309307DAD8EAD9FAD25970E94190B9B01AC0137
S1130940C301B2010E94E3082D966CAF7DAF8EAF58
S11309509FAF2D976093B0037093B1038093B2035C
S11309609093B30304ED13E0F801208131814281B7
S11309705381C501B4010E94190B4B015C01D801DC
S113098014962D913D914D915C911797C701B60135
S11309900E94190B9B01AC01C501B4010E94E3083C
S11309A06B017C01F80120853185428553852596AC
S11309B06CAD7DAD8EAD9FAD25970E94190B9B014B
S11309C0AC01C701B6010E94E30861966CAF7DAF2C
S11309D08EAF9FAF61976093070470930804809370
S11309E0090490930A042101612C712C60919403F1
S11309F0709195038091960390919703A3019201BE
S1130A000E94620F49015A010DEF13E0D8012D93A2
S1130A103C936091B4037091B5038091B6039091B7
S1130A20B703A30192010E94620F69017A01F801E0
S1130A303383228360910B0470910C0480910D0424
S1130A4090910E04A30192010E94620F29013A01C0
S1130A50D80115963C932E931497B401990C880BE6
S1130A60990B0E943A0A20918F0330919003409190
S1130A709103509192030E94E2084B015C01B6017C
S1130A80DD0C880B990B0E943A0A209118043091CE
S1130A90190440911A0450911B040E94E2086B014E
S1130AA07C01B201550C880B990B0E943A0A2091E3
S1130AB0E6033091E7034091E8035091E9030E9473
S1130AC0E20829966CAF7DAF8EAF9FAF299708EBF4
S1130AD013E0F8012081318142815381C501B401C1
S1130AE00E94190B2B013C01D80114962D913D91C4
S1130AF04D915C911797C701B6010E94190B9B0198
S1130B00AC01C301B2010E94E3082B013C01F801CE
S1130B10208531854285538529966CAD7DAD8EAD9A
S1130B209FAD29970E94190B9B01AC01C301B2012F
S1130B300E94E30825966CAF7DAF8EAF9FAF2597DB
S1130B4008EC13E0D8012D913D914D915C91C501C4
S1130B50B4010E94190B2B013C01F8012481358159
S1130B6046815781C701B6010E94190B9B01AC0154
S1130B70C301B2010E94E3082B013C01D80118967D
S1130B802D913D914D915C911B9729966CAD7DAD56
S1130B908EAD9FAD29970E94190B9B01AC01C30137
S1130BA0B2010E94E3082B013C0102E813E0F801C2
S1130BB02081318142815381C501B4010E94190B06
S1130BC04B015C01D80114962D913D914D915C919E
S1130BD01797C701B6010E94190B9B01AC01C5010F
S1130BE0B4010E94E3086B017C01F8012085318582
S1130BF04285538529966CAD7DAD8EAD9FAD299709
S1130C000E94190B9B01AC01C701B6010E94E308C5
S1130C1029966CAF7DAF8EAF9FAF299725962CADEB
S1130C203DAD4EAD5FAD2597CA01B9010E94190BC8
S1130C304B015C0129962CAD3DAD4EAD5FAD2997BE
S1130C40CA01B9010E94190B6B017C01A70196012D
S1130C50C501B4010E94E3080E948C0B9B01AC0106
S1130C60C301B2010E94C6090E94920920EE3EE22D
S1130C7045E652E40E94190B6093A4037093A50304
S1130C808093A6039093A703A3019201C301B20129
S1130C900E94190B65966CAF7DAF8EAF9FAF6597C1
S1130CA065962CAD3DAD4EAD5FAD6597C701B60100
S1130CB00E94E3080E948C0B9B01AC0125966CAD4D
S1130CC07DAD8EAD9FAD25970E94C6090E94920905
S1130CD020EE3EE245E652E40E94190B6093A8031D
S1130CE07093A9038093AA039093AB0365962CADEC
S1130CF03DAD4EAD5FAD6597C501B4010E94E308FB
S1130D009B01AC01C701B6010E94E3080E948C0B51
S1130D104B015C019B01AC0125966CAD7DAD8EADA4
S1130D209FAD25970E94C6096B017C016093E00387
S1130D307093E1038093E2039093E303A50194018C
S1130D40C301B2010E94C60925966CAF7DAF8EAF78
S1130D509FAF259760931C0470931D0480931E0419
S1130D6090931F04A501940129966CAD7DAD8EADC1
S1130D709FAD29970E94C6094B015C016093AC03A7
S1130D807093AD038093AE039093AF03A7019601D4
S1130D90C701B6010E94190B9B01AC0160E070E031
S1130DA080E89FE30E94E20829966CAF7DAF8EAF86
S1130DB09FAF2997A70196012D966CAD7DAD8EADA1
S1130DC09FAD2D970E94190B9B01AC0125966CAD2C
S1130DD07DAD8EAD9FAD25970E94190B2B013C0173
S1130DE0609324047093250480932604909327042D
S1130DF029962CAD3DAD4EAD5FAD299769966CAD8E
S1130E007DAD8EAD9FAD69970E94190BA301920130
S1130E100E94E2082B013C01A701960161966CAD8A
S1130E207DAD8EAD9FAD61970E94190B9B01AC0106
S1130E30C501B4010E94190B9B01AC01C301B201AD
S1130E400E94E2086B017C0160937E0370937F0330
S1130E508093800390938103A50194012D966CAD3A
S1130E607DAD8EAD9FAD2D970E94190B4B015C019A
S1130E7025962CAD3DAD4EAD5FAD259761966CAD1D
S1130E807DAD8EAD9FAD61970E94190B9B01AC01A6
S1130E90C501B4010E94E2086093C4037093C503C2
S1130EA08093C6039093C7032091E403243009F090
S1130EB061C0A70196010E94620920EE3EE245E668
S1130EC052E40E94190BE62EF72E082F192FD62E66
S1130ED0C72EB82EA92E20E030E0A9010E94C10936
S1130EE0882374F420E030E044EB53E46E2D7F2D2E
S1130EF0802F912F0E94E308D62EC72EB82EA92E3C
S1130F00AF92BF92CF92DF9285E291E09F938F934D
S1130F10CE0101969F938F930E946B111092E5036B
S1130F200FB6F894DEBF0FBECDBF0EC0E1E0F0E017
S1130F30EC0FFD1FE80FF11D80810E94EB008091F2
S1130F40E5038F5F8093E5038091E503282F30E06C
S1130F50DE011196FD0101900020E9F73197EA1BAB
S1130F60FB0B2E173F0710F38DE00E94EB008AE085
S1130F700E94EB001092F6031092940310929503D2
S1130F8010929603109297031092B4031092B50333
S1130F901092B6031092B70310920B0410920C0433
S1130FA010920D0410920E04212C312C8EE10E941B
S1130FB0270180FFFBCF0E9489018091E4038130E7
S1130FC009F058C080919303813009F053C0809197
S1130FD00F04803408F04AC0EDEFF3E085818F936D
S1130FE084818F9383818F9382818F9381818F9367
S1130FF080818F938BE291E09F938F93CE01019632
S11310009F938F930E946B111092E5030FB6F8948F
S1131010DEBF0FBECDBF0EC0E1E0F0E0EC0FFD1F60
S1131020E80FF11D80810E94EB008091E5038F5F42
S11310308093E5038091E503282F30E0DE011196CB
S1131040FD0101900020E9F73197EA1BFB0B2E17F5
S11310503F0710F38DE00E94EB008AE00E94EB0052
S113106080910F048F5F80930F0404C010920F04CB
S113107010929303EDEFF3E080819181092E000C2F
S1131080AA0BBB0B40919403509195036091960376
S113109070919703840F951FA61FB71F8093940325
S11310A090939503A0939603B093970382819381C1
S11310B0092E000CAA0BBB0B4091B4035091B5034D
S11310C06091B6037091B703840F951FA61FB71FD5
S11310D08093B4039093B503A093B603B093B7037E
S11310E084819581092E000CAA0BBB0B40910B0443
S11310F050910C0460910D0470910E04840F951F9F
S1131100A61FB71F80930B0490930C04A0930D04A7
S1131110B0930E04BFEF2B1A3B0AA4CA9091C000EF
S113112095FFFCCF8093C60080E090E00895809105
S11311307C0390917D03892B49F5ECE2F3E08091E7
S1131140C0008823E4F78091C00084FD32C0809100
S1131150C00083FD31C08091C6008D3009F48AE05F
S11311608A3041F480838CE293E090937D038093F2
S11311707C030CC090EE980F9F3510F0803A18F065
S113118080833196DCCF8330D1F619C0E0917C03A3
S1131190F0917D03CF01019690937D0380937C03AE
S11311A080818A3021F410927D0310927C0390E0B8
S11311B008958EEF9FEF08958FEF9FEF08958FEFBF
S11311C09FEF08955058BB27AA270E94FA080C9451
S11311D0D70A0E94C90A38F00E94D00A20F039F4D4
S11311E09F3F19F426F40C949F0A0EF4E095E7FB54
S11311F00C94990AE92F0E94E80A58F3BA17620777
S113120073078407950720F079F4A6F50C940A0B6C
S11312100EF4E0950B2EBA2FA02D0B01B90190010D
S11312200C01CA01A0011124FF27591B99F0593F51
S113123050F4503E68F11A16F040A22F232F342F99
S11312404427585FF3CF469537952795A795F040E7
S11312505395C9F77EF41F16BA0B620B730B840BFC
S1131260BAF09150A1F0FF0FBB1F661F771F881FB4
S1131270C2F70EC0BA0F621F731F841F48F487950C
S113128077956795B795F7959E3F08F0B0CF9395FE
S1131290880F08F09927EE0F9795879508950E9477
S11312A0C90A60F080E891E009F49EEF0E94D00A38
S11312B028F040E851E071F45EEF0CC00C949F0AF2
S11312C00C940A0BE92FE0780E94E80A40F3092EF7
S11312D0052AB1F3261737074807590738F00E2EA9
S11312E007F8E02569F0E025E0640AC0EF6307F839
S11312F0009407FADB01B9019D01DC01CA01AD01CB
S1131300EF930E94DD090E94D70A0E9492095F911F
S1131310552339F02BED3FE049E450FD49EC0C94A2
S1131320E3080895DF93DD27B92FBF7740E85FE333
S11313301616170648075B0718F4D92F0E94110BDD
S11313409F938F937F936F930E94CC0BE8E6F0E01A
S11313500E94A20A0E94D70A2F913F914F915F9158
S11313600E942C0BDD2351F09058A2EA2AED3FE0B5
S113137049EC5FE3D0785D270E94FA08DF910C9472
S1131380D70A0E94750A08F481E008950E94DA09D8
S11313900C94D70A0E94D00A58F00E94C90A40F05F
S11313A029F45F3F29F00C94990A51110C940B0B0A
S11313B00C949F0A0E94E80A68F39923B1F3552319
S11313C091F3951B550BBB27AA2762177307840754
S11313D038F09F5F5F4F220F331F441FAA1FA9F3EA
S11313E035D00E2E3AF0E0E832D091505040E695D8
S11313F0001CCAF72BD0FE2F29D0660F771F881F39
S1131400BB1F261737074807AB07B0E809F0BB0B2B
S1131410802DBF01FF2793585F4F3AF09E3F51053F
S113142078F00C94990A0C940B0B5F3FE4F3983E0C
S1131430D4F3869577956795B795F7959F5FC9F728
S1131440880F911D9695879597F90895E1E0660FA9
S1131450771F881FBB1F621773078407BA0720F022
S1131460621B730B840BBA0BEE1F88F7E09508958B
S1131470E89409C097FB3EF490958095709561952A
S11314807F4F8F4F9F4F9923A9F0F92F96E9BB27E0
S11314909395F695879577956795B795F111F8CF5C
S11314A0FAF4BB0F11F460FF1BC06F5F7F4F8F4FC7
S11314B09F4F16C0882311F096E911C0772321F0BD
S11314C09EE8872F762F05C0662371F096E8862F55
S11314D070E060E02AF09A95660F771F881FDAF7AC
S11314E0880F9695879597F90895990F0008550FD9
S11314F0AA0BE0E8FEEF16161706E807F907C0F096
S113150012161306E407F50798F0621B730B840B9D
S1131510950B39F40A2661F0232B242B252B21F477
S113152008950A2609F4A140A6958FEF811D811D17
S1131530089597F99F6780E870E060E008959FEF51
S113154080EC0895DF93CF931F930F93FF92EF9254
S1131550DF927B018C01689406C0DA2EEF010E94B1
S11315602C0BFE01E894A591259135914591559157
S1131570A6F3EF010E94FA08FE019701A801DA948C
S113158069F7DF90EF90FF900F911F91CF91DF915A
S1131590089500240A9416161706180609060895D5
S11315A000240A9412161306140605060895092E3B
S11315B00394000C11F4882352F0BB0F40F4BF2BAA
S11315C011F460FF04C06F5F7F4F8F4F9F4F0895EA
S11315D057FD9058440F551F59F05F3F71F04795E0
S11315E0880F97FB991F61F09F3F79F087950895C5
S11315F0121613061406551FF2CF4695F1DF08C0E4
S1131600161617061806991FF1CF86957105610500
S113161008940895E894BB2766277727CB0197F9A8
S113162008959B01AC0160E070E080E89FE30C94B6
S1131630C6090E942C0B0C94D70A0E94C90A38F0E0
S11316400E94D00A20F0952311F00C94990A0C946E
S11316509F0A11240C940B0B0E94E80A70F3959FC7
S1131660C1F3950F50E0551F629FF001729FBB2795
S1131670F00DB11D639FAA27F00DB11DAA1F649F31
S11316806627B00DA11D661F829F2227B00DA11DE4
S1131690621F739FB00DA11D621F839FA00D611D6A
S11316A0221F749F3327A00D611D231F849F600D8B
S11316B0211D822F762F6A2F11249F5750409AF0B4
S11316C0F1F088234AF0EE0FFF1FBB1F661F771F40
S11316D0881F91505040A9F79E3F510580F00C940B
S11316E0990A0C940B0B5F3FE4F3983ED4F3869570
S11316F077956795B795F795E7959F5FC1F7FE2BAB
S1131700880F911D9695879597F9089519F416F405
S11317100C949F0A0C94D00B0E94F00AB8F39923FE
S1131720C9F3B6F39F57550B87FF0E94DE0B0024C5
S1131730A0E640EA900180585695979528F4805C7D
S1131740660F771F881F20F026173707480730F4E5
S1131750621B730B840B202931294A2BA6951794FD
S11317600794202531254A2758F7660F771F881FCD
S113177020F026173707480730F4620B730B840BED
S1131780200D311D411DA09581F7B901842F915879
S1131790880F9695879508959B01AC010C94190BBD
S11317A09F3F31F0915020F4879577956795B795D1
S11317B0880F911D9695879597F9089591505040FB
S11317C0660F771F881FD2F70895A0E1B0E0EBEE13
S11317D0FBE00C94810F7C011B016A01FC01178260
S11317E01682838181FF44C39E012F5F3F4F3901DD
S11317F0F7019381F10193FD859193FF81911F017D
S1131800882309F431C3853239F493FD859193FF1C
S113181081911F01853239F4B70190E00E941911BA
S113182056016501E5CF10E0512C912CFFE1F9152B
S1131830D8F08B3279F038F4803279F08332A1F425
S1131840F92DF0612EC08D3261F0803369F4292DB9
S113185021602DC0392D3260932E892D8460982EFD
S11318602AC0E92DE86015C097FC2DC020ED280F93
S11318702A3088F496FE06C03AE0139F200D112406
S1131880122F19C08AE0589E200D1124522EE92DE2
S1131890E0629E2E10C08E3231F496FCE5C2F92D22
S11318A0F0649F2E08C08C3621F4292D2068922ED6
S11318B002C0883641F4F10193FD859193FF819133
S11318C01F018111B3CF9BEB980F933020F4992D16
S11318D09061805E07C09BE9980F933008F066C161
S11318E0992D9F7E96FF16E09F73992E853619F4E5
S11318F09064992E08C0863621F4392F3068932ECF
S113190002C01111115097FE07C01C3350F4442437
S11319104394410E27E00BC0183038F027E017E05D
S113192005C027E09CE3492E02C0212F412C56011B
S113193084E0A80EB11CF6016081718182819381DB
S1131940042DA3010E94DA0F6C01F981FC87F0FFDA
S113195002C0F3FF06C091FC06C092FE06C000E27E
S113196005C00DE203C00BE201C000E08C858C7061
S113197019F001115AC29BC297FE10C04C0CFC8591
S1131980F4FF04C08A81813309F44A94141474F571
S113199028E0241578F588E0482E2CC096FC2AC04F
S11319A0812F90E08C159D059CF03CEFC3163FEF12
S11319B0D30674F0892D8068982E0AC0E2E0F0E026
S11319C0EC0FFD1FE10FF11D8081803319F41150DC
S11319D01111F4CF97FE0EC044244394410E812F7D
S11319E090E0C816D9062CF41C1904C0442443946E
S11319F001C010E097FE06C01C141D0434F4C60197
S1131A00019605C085E090E002C081E090E00111FC
S1131A100196112331F0212F30E02F5F3F4F820FC9
S1131A20931F252D30E08217930714F4581A01C030
S1131A30512C892D897049F4552039F0B70180E281
S1131A4090E00E9419115A94F7CF002329F0B701AE
S1131A50802F90E00E94191193FC09C0552039F0A1
S1131A60B70180E390E00E9419115A94F7CF97FED2
S1131A704CC04601D7FE02C0812C912CC6018819A6
S1131A809909F301E80FF91FFE87ED8796012419E0
S1131A903109388B2F87012F10E011950195110919
S1131AA03FEF8316930629F4B7018EE290E00E947B
S1131AB01911C814D9044CF08F8598898815990593
S1131AC024F4ED85FE85818101C080E3F1E08F1A65
S1131AD091082D853E852F5F3F4F3E872D878016C9
S1131AE091062CF0B70190E00E941911D9CFC814C7
S1131AF0D90441F49A81963320F4953319F43C8542
S1131B0034FF81E3B70190E04EC08A81813319F03C
S1131B109C859F7E9C87B70190E00E94191111114A
S1131B2005C094FC18C085E690E017C0B7018EE2AA
S1131B3090E00E9419111E5F82E001E0080FF3019A
S1131B40E80FF11D8081B70190E00E941911802FE8
S1131B500113F3CFE6CF85E490E0B7010E94191199
S1131B60D7FC06C0C114D10441F4EC85E4FF05C0E0
S1131B70D194C194D1088DE201C08BE2B70190E009
S1131B800E94191180E32AE0C216D1042CF08F5F61
S1131B90FAE0CF1AD108F7CFB70190E00E941911EB
S1131BA0B701C601C0960E94191154C1833631F0A1
S1131BB0833779F0833509F056C020C0560132E0EE
S1131BC0A30EB11CF6018081898301E010E063015A
S1131BD012C05601F2E0AF0EB11CF601C080D180F4
S1131BE096FE03C0612F70E002C06FEF7FEFC60165
S1131BF00E94C8108C01F92DFF7714C0560122E011
S1131C00A20EB11CF601C080D18096FE03C0612FE4
S1131C1070E002C06FEF7FEFC6010E94B2108C012A
S1131C20F92DF0689F2EF3FD1AC0852D90E008175A
S1131C301907A8F4B70180E290E00E9419115A94A0
S1131C40F4CFF60197FC859197FE81916F01B7015E
S1131C5090E00E94191151105A9401501109011574
S1131C60110579F7F7C0843611F0893661F556010C
S1131C7097FE09C024E0A20EB11CF60160817181B7
S1131C80828193810AC0F2E0AF0EB11CF60160813B
S1131C907181072E000C880B990BF92DFF769F2E6E
S1131CA097FF09C090958095709561957F4F8F4FF0
S1131CB09F4FF0689F2E2AE030E0A3010E948D110F
S1131CC0C82EC6183FC0092D853721F40F7E2AE09F
S1131CD030E01DC0097F8F3691F018F4883559F033
S1131CE0C3C0803719F0883711F0BEC0006104FF0B
S1131CF009C0046007C094FE08C0066006C028E05E
S1131D0030E005C020E130E002C020E132E05601BD
S1131D1007FF09C084E0A80EB11CF601608171813F
S1131D208281938108C0F2E0AF0EB11CF60160819C
S1131D30718180E090E0A3010E948D11C82EC61825
S1131D400F77902E96FE0BC0092D0E7FC11650F40E
S1131D5094FE0AC092FC08C0092D0E7E05C0DC2C3E
S1131D60092D03C0DC2C01C0D12E04FF0DC0FE01DF
S1131D70EC0DF11D8081803311F4097E09C002FF4E
S1131D8006C0D394D39404C0802F867809F0D394EA
S1131D9003FD11C000FF06C01C2DD51480F4150DE1
S1131DA01D190DC0D51458F4B70180E290E00E94CB
S1131DB01911D394F7CFD51410F45D1801C0512C28
S1131DC004FF10C0B70180E390E00E94191102FFE4
S1131DD017C001FD03C088E790E002C088E590E0E9
S1131DE0B7010CC0802F867859F001FF02C08BE246
S1131DF001C080E207FD8DE2B70190E00E94191155
S1131E00C11638F4B70180E390E00E941911115013
S1131E10F7CFCA94F301EC0DF11D8081B70190E076
S1131E200E941911C110F5CF15C0F4E0F51560F545
S1131E3084E0581A93FE1FC0011127C02C8523FF8C
S1131E402AC006E910E0392D3071932EF8018491EF
S1131E50811124C0552009F4E4CCB70180E290E05C
S1131E600E9419115A94F6CFF7018681978126C0F2
S1131E708FEF9FEF23C0B70180E290E00E94191119
S1131E805A945110F8CFD8CF512CB701802F90E03D
S1131E900E941911D3CF0AE910E0D5CF91108052D6
S1131EA0B70190E00E9419110F5F1F4FCFCF23E0BD
S1131EB0251510F483E0BDCF512CC0CF6096E2E12C
S1131EC00C949D0F052E97FB1EF400940E94790F2D
S1131ED057FD07D00E94B80F07FC03D04EF40C94B2
S1131EE0790F50954095309521953F4F4F4F5F4F57
S1131EF0089590958095709561957F4F8F4F9F4F72
S1131F0008952F923F924F925F926F927F928F9299
S1131F109F92AF92BF92CF92DF92EF92FF920F9374
S1131F201F93CF93DF93CDB7DEB7CA1BDB0B0FB67E
S1131F30F894DEBF0FBECDBF09942A88398848883B
S1131F405F846E847D848C849B84AA84B984C884D1
S1131F50DF80EE80FD800C811B81AA81B981CE0FC8
S1131F60D11D0FB6F894DEBF0FBECDBFED010895AD
S1131F70A1E21A2EAA1BBB1BFD010DC0AA1FBB1F89
S1131F80EE1FFF1FA217B307E407F50720F0A21BFB
S1131F90B30BE40BF50B661F771F881F991F1A9468
S1131FA069F760957095809590959B01AC01BD0192
S1131FB0CF010895283008F027E03327DA01990F7C
S1131FC0311D87FD916000966105710539F4326019
S1131FD02E5F3D9330E32A95E1F708959F3F30F05B
S1131FE080387105610509F03C5F3C5F3D93913099
S1131FF008F08068911DDF93CF931F930F93FF9296
S1132000EF92192F987F9695E92F96959695E90F5B
S1132010FF27E850FF4F99273327EE24FF24A70119
S1132020E70105900894079428F4360FE71EF81E7C
S1132030491F511D660F771F881F991F0694A1F72A
S11320400590079428F4E70EF81E491F561FC11D7A
S1132050770F881F991F661F0694A1F705900794B0
S113206028F4F80E491F561FC71FD11D880F991F4A
S1132070661F771F0694A1F70590079420F4490F73
S1132080561FC71FD81F990F661F771F881F0694F6
S1132090A9F784911095177041F0D695C795579577
S11320A04795F794E7941A95C1F7EEE9F0E0689440
S11320B01590159135916591959105907FE27395F1
S11320C0E118F10A430B560BC90BD009C0F7E10C18
S11320D0F11E431F561FC91FD01D7EF4703311F427
S11320E08A95E6CFE894015030F0080F0AF40027EF
S11320F0021708F4202F2395022F7A3328F079E36E
S11321007D932A95E9F710C07D932A9589F6069464
S113211097956795379517951794E118F10A430B2E
S1132120560BC90BD00998F023957E9173957A3399
S113213008F070E37C932013B8F77E9170617D936F
S113214030F0839571E37D9370E32A95E1F71124D0
S1132150EF90FF900F911F91CF91DF91992787FD09
S113216090950895FC010590615070400110D8F7D6
S1132170809590958E0F9F1F0895FC01819186177D
S113218021F08823D9F7992708953197CF0108952D
S1132190FC016150704001900110D8F78095909532
S11321A08E0F9F1F0895FB0151915523A9F0BF0184
S11321B0DC014D9145174111E1F759F4CD0101902E
S11321C0002049F04D9140154111C9F3FB01411123
S11321D0EFCF81E090E001970895A0E0B0E0E3EF55
S11321E0F0E10C948B0FFA01238120FD03C080E001
S11321F090E01AC016161706D4F77A018C01EB0189
S11322006C01C130D10569F0C7010E94EB118F3F09
S1132210FFEF9F0761F3F60181936F0121970A97FE
S113222081F7F6011082C801CDB7DEB7E8E00C945F
S1132230A70F0F931F93CF93DF93FB01238121FDFE
S113224003C08FEF9FEF2CC022FF16C04681578139
S1132250248135814217530744F4A081B1819D0143
S11322602F5F3F4F318320838C93268137812F5FEB
S11322703F4F3783268314C08B01EC01FB0100849C
S1132280F185E02D0995892BE1F6D80116968D91FB
S11322909C911797019617969C938E931697CE014F
S11322A0DF91CF911F910F910895A0E0B0E0EBE58D
S11322B0F1E10C94910FAE014B5F5F4FFA01619114
S11322C07191AF0180912A0490912B040E94E50B37
S11322D0E2E00C94AD0FAEE0B0E0E1E7F1E10C9484
S11322E08F0F0D891E8986E08C831A8309838FEFF3
S11322F09FE79E838D83AE01475E5F4F6F89788D24
S1132300CE0101960E94E50BEF81F885E00FF11FE5
S113231010822E96E4E00C94AB0FFA01AA27283021
S113232051F1203181F1E8946F936E7F6E5F7F4F9E
S11323308F4F9F4FAF4FB1E03ED0B4E03CD0670F1A
S1132340781F891F9A1FA11D680F791F8A1F911D6D
S1132350A11D6A0F711D811D911DA11D20D009F4BD
S113236068943F912AE0269F11243019305D3193FF
S1132370DEF6CF010895462F4770405D4193B3E0E8
S11323800FD0C9F7F6CF462F4F70405D4A3318F08F
S1132390495D31FD4052419302D0A9F7EACFB4E040
S11323A0A6959795879577956795BA95C9F70097F8
S11323B06105710508959B01AC010A2E0694579599
S11323C0479537952795BA95C9F7620F731F841FF0
S11323D0951FA01D0895CF93DF93EC012B8120FF5F
S11323E033C026FF0AC02F7B2B838E819F810196E9
S11323F09F838E838A8190E029C022FF0FC0E881E9
S1132400F9818081082E000C990B009719F4206241
S11324102B831AC03196F983E8830EC0EA85FB85C5
S1132420099597FF09C02B81019611F080E201C044
S113243080E1822B8B8308C02E813F812F5F3F4F29
S11324403F832E83992702C08FEF9FEFDF91CF91B7
S10924500895F894FFCF8B
S113245600000003000000008E08970800002573A2
S11324660D0A004D31004D32004D340025692025FA
S1132476692025690025352E316600253569202514
S10B24863569202535690000C9
S9030000FC
